{
  "abi": [
    {
      "inputs": [],
      "stateMutability": "nonpayable",
      "type": "constructor"
    },
    {
      "anonymous": false,
      "inputs": [
        {
          "indexed": true,
          "internalType": "address",
          "name": "usr",
          "type": "address"
        }
      ],
      "name": "Deny",
      "type": "event"
    },
    {
      "anonymous": false,
      "inputs": [
        {
          "indexed": true,
          "internalType": "address",
          "name": "usr",
          "type": "address"
        }
      ],
      "name": "Rely",
      "type": "event"
    },
    {
      "anonymous": false,
      "inputs": [
        {
          "indexed": true,
          "internalType": "address",
          "name": "implementation_",
          "type": "address"
        }
      ],
      "name": "SetImplementation",
      "type": "event"
    },
    {
      "stateMutability": "nonpayable",
      "type": "fallback"
    },
    {
      "inputs": [
        {
          "internalType": "address",
          "name": "usr",
          "type": "address"
        }
      ],
      "name": "deny",
      "outputs": [],
      "stateMutability": "nonpayable",
      "type": "function"
    },
    {
      "inputs": [],
      "name": "implementation",
      "outputs": [
        {
          "internalType": "address",
          "name": "",
          "type": "address"
        }
      ],
      "stateMutability": "view",
      "type": "function"
    },
    {
      "inputs": [
        {
          "internalType": "address",
          "name": "usr",
          "type": "address"
        }
      ],
      "name": "rely",
      "outputs": [],
      "stateMutability": "nonpayable",
      "type": "function"
    },
    {
      "inputs": [
        {
          "internalType": "address",
          "name": "implementation_",
          "type": "address"
        }
      ],
      "name": "setImplementation",
      "outputs": [],
      "stateMutability": "nonpayable",
      "type": "function"
    },
    {
      "inputs": [
        {
          "internalType": "address",
          "name": "",
          "type": "address"
        }
      ],
      "name": "wards",
      "outputs": [
        {
          "internalType": "uint256",
          "name": "",
          "type": "uint256"
        }
      ],
      "stateMutability": "view",
      "type": "function"
    }
  ],
  "bytecode": {
    "object": "0x608060405234801561001057600080fd5b5033600081815260016020819052604080832091909155517fdd0e34038ac38b2a1ce960229778ac48a8719bc900b6c4f8d0475c6e8b385a609190a261038a8061005b6000396000f3fe608060405234801561001057600080fd5b50600436106100575760003560e01c80635c60da1b146100f357806365fae35e146101235780639c52a7f114610136578063bf353dbb14610149578063d784d42614610177575b600080546001600160a01b031690813b90036100cd5760405162461bcd60e51b815260206004820152602a60248201527f5570677261646561626c6550726f78792f6e6f2d636f64652d61742d696d706c60448201526932b6b2b73a30ba34b7b760b11b60648201526084015b60405180910390fd5b3660008037600080366000845af43d6000803e8080156100ec573d6000f35b3d6000fd5b005b600054610106906001600160a01b031681565b6040516001600160a01b0390911681526020015b60405180910390f35b6100f16101313660046102ed565b61018a565b6100f16101443660046102ed565b610201565b6101696101573660046102ed565b60016020526000908152604090205481565b60405190815260200161011a565b6100f16101853660046102ed565b610275565b33600090815260016020819052604090912054146101ba5760405162461bcd60e51b81526004016100c49061031d565b6001600160a01b038116600081815260016020819052604080832091909155517fdd0e34038ac38b2a1ce960229778ac48a8719bc900b6c4f8d0475c6e8b385a609190a250565b33600090815260016020819052604090912054146102315760405162461bcd60e51b81526004016100c49061031d565b6001600160a01b038116600081815260016020526040808220829055517f184450df2e323acec0ed3b5c7531b81f9b4cdef7914dfd4c0a4317416bb5251b9190a250565b33600090815260016020819052604090912054146102a55760405162461bcd60e51b81526004016100c49061031d565b600080546001600160a01b0319166001600160a01b038316908117825560405190917fddebe6de740fe0dd01cc33ffa314d11c6ac6acbbe50b80513c4c360ae7aa4f0491a250565b6000602082840312156102ff57600080fd5b81356001600160a01b038116811461031657600080fd5b9392505050565b6020808252601f908201527f5570677261646561626c6550726f78792f6e6f742d617574686f72697a65640060408201526060019056fea2646970667358221220188939a378a5a218c09927e6d3009a0b13e6718b1bf1562e2c1f9135b2cdbe5564736f6c63430008140033",
    "linkReferences": {}
  },
  "methodIdentifiers": {
    "deny(address)": "9c52a7f1",
    "implementation()": "5c60da1b",
    "rely(address)": "65fae35e",
    "setImplementation(address)": "d784d426",
    "wards(address)": "bf353dbb"
  },
  "id": 94
}