{
  "abi": [
    {
      "inputs": [
        {
          "internalType": "address",
          "name": "",
          "type": "address"
        }
      ],
      "name": "wards",
      "outputs": [
        {
          "internalType": "uint256",
          "name": "",
          "type": "uint256"
        }
      ],
      "stateMutability": "view",
      "type": "function"
    }
  ],
  "bytecode": {
    "object": "0x608060405234801561001057600080fd5b5060c08061001f6000396000f3fe6080604052348015600f57600080fd5b506004361060285760003560e01c8063bf353dbb14602d575b600080fd5b604a6038366004605c565b60016020526000908152604090205481565b60405190815260200160405180910390f35b600060208284031215606d57600080fd5b81356001600160a01b0381168114608357600080fd5b939250505056fea2646970667358221220c3dbdccde95621653debc212cb1a251363731cfda1a2f7b49c8e8379cfe72b5864736f6c63430008140033",
    "linkReferences": {}
  },
  "methodIdentifiers": {
    "wards(address)": "bf353dbb"
  },
  "id": 93
}