{
  "abi": [
    {
      "inputs": [
        {
          "internalType": "uint256",
          "name": "_interestRate",
          "type": "uint256"
        },
        {
          "internalType": "address",
          "name": "_sDAIAddress",
          "type": "address"
        }
      ],
      "stateMutability": "nonpayable",
      "type": "constructor"
    },
    {
      "inputs": [],
      "name": "ReentrancyGuardReentrantCall",
      "type": "error"
    },
    {
      "inputs": [
        {
          "internalType": "address",
          "name": "token",
          "type": "address"
        },
        {
          "internalType": "uint256",
          "name": "amount",
          "type": "uint256"
        },
        {
          "internalType": "address",
          "name": "sender",
          "type": "address"
        }
      ],
      "name": "depositIntoStrategy",
      "outputs": [],
      "stateMutability": "nonpayable",
      "type": "function"
    },
    {
      "inputs": [
        {
          "internalType": "address",
          "name": "",
          "type": "address"
        }
      ],
      "name": "depositTimestamps",
      "outputs": [
        {
          "internalType": "uint256",
          "name": "",
          "type": "uint256"
        }
      ],
      "stateMutability": "view",
      "type": "function"
    },
    {
      "inputs": [
        {
          "internalType": "address",
          "name": "",
          "type": "address"
        }
      ],
      "name": "deposits",
      "outputs": [
        {
          "internalType": "uint256",
          "name": "",
          "type": "uint256"
        }
      ],
      "stateMutability": "view",
      "type": "function"
    },
    {
      "inputs": [
        {
          "internalType": "address",
          "name": "",
          "type": "address"
        }
      ],
      "name": "homeLoanTimestamps",
      "outputs": [
        {
          "internalType": "uint256",
          "name": "",
          "type": "uint256"
        }
      ],
      "stateMutability": "view",
      "type": "function"
    },
    {
      "inputs": [
        {
          "internalType": "address",
          "name": "",
          "type": "address"
        }
      ],
      "name": "homeLoans",
      "outputs": [
        {
          "internalType": "uint256",
          "name": "",
          "type": "uint256"
        }
      ],
      "stateMutability": "view",
      "type": "function"
    },
    {
      "inputs": [],
      "name": "interestRate",
      "outputs": [
        {
          "internalType": "uint256",
          "name": "",
          "type": "uint256"
        }
      ],
      "stateMutability": "view",
      "type": "function"
    },
    {
      "inputs": [
        {
          "internalType": "uint256",
          "name": "",
          "type": "uint256"
        }
      ],
      "name": "loanAddresses",
      "outputs": [
        {
          "internalType": "address",
          "name": "",
          "type": "address"
        }
      ],
      "stateMutability": "view",
      "type": "function"
    },
    {
      "inputs": [
        {
          "internalType": "address",
          "name": "loanAddress",
          "type": "address"
        },
        {
          "internalType": "uint256",
          "name": "payment",
          "type": "uint256"
        }
      ],
      "name": "makePaymentForLoan",
      "outputs": [
        {
          "internalType": "uint256",
          "name": "",
          "type": "uint256"
        }
      ],
      "stateMutability": "nonpayable",
      "type": "function"
    },
    {
      "inputs": [
        {
          "internalType": "address",
          "name": "asset",
          "type": "address"
        }
      ],
      "name": "maxValueOfLoan",
      "outputs": [
        {
          "internalType": "uint256",
          "name": "maxValue",
          "type": "uint256"
        }
      ],
      "stateMutability": "view",
      "type": "function"
    },
    {
      "inputs": [
        {
          "internalType": "address",
          "name": "asset",
          "type": "address"
        }
      ],
      "name": "maxWithdraw",
      "outputs": [
        {
          "internalType": "uint256",
          "name": "maxValue",
          "type": "uint256"
        }
      ],
      "stateMutability": "view",
      "type": "function"
    },
    {
      "inputs": [
        {
          "internalType": "address",
          "name": "loanAddress",
          "type": "address"
        },
        {
          "internalType": "uint256",
          "name": "loanValue",
          "type": "uint256"
        }
      ],
      "name": "newHomeLoan",
      "outputs": [],
      "stateMutability": "nonpayable",
      "type": "function"
    },
    {
      "inputs": [],
      "name": "sDAIAddress",
      "outputs": [
        {
          "internalType": "address",
          "name": "",
          "type": "address"
        }
      ],
      "stateMutability": "view",
      "type": "function"
    },
    {
      "inputs": [
        {
          "internalType": "address",
          "name": "asset",
          "type": "address"
        },
        {
          "internalType": "uint256",
          "name": "amount",
          "type": "uint256"
        },
        {
          "internalType": "address",
          "name": "sender",
          "type": "address"
        }
      ],
      "name": "withdrawal",
      "outputs": [
        {
          "internalType": "uint256",
          "name": "",
          "type": "uint256"
        }
      ],
      "stateMutability": "nonpayable",
      "type": "function"
    }
  ],
  "bytecode": {
    "object": "0x608060405234801561001057600080fd5b50604051610dc4380380610dc483398101604081905261002f916100d1565b600160005581158015906100455750610bb88211155b6100a75760405162461bcd60e51b815260206004820152602960248201527f496e74657265737420726174652073686f756c64206265206265747765656e206044820152683020616e642033302560b81b606482015260840160405180910390fd5b600191909155600280546001600160a01b0319166001600160a01b0390921691909117905561010e565b600080604083850312156100e457600080fd5b825160208401519092506001600160a01b038116811461010357600080fd5b809150509250929050565b610ca78061011d6000396000f3fe608060405234801561001057600080fd5b50600436106100cf5760003560e01c80637d419b221161008c578063ed52013811610066578063ed520138146101bc578063f108ef5b146101cf578063f67c0daf146101ef578063fc7e286d1461020257600080fd5b80637d419b22146101835780639b6d23b514610196578063ce96cb77146101a957600080fd5b806313b23bb1146100d4578063240be9441461010457806329e39f24146101325780634e8c1ad8146101475780636cbc6a28146101675780637c3a00fd1461017a575b600080fd5b6002546100e7906001600160a01b031681565b6040516001600160a01b0390911681526020015b60405180910390f35b610124610112366004610abd565b60046020526000908152604090205481565b6040519081526020016100fb565b610145610140366004610ad8565b610222565b005b610124610155366004610abd565b60056020526000908152604090205481565b6100e7610175366004610b02565b610338565b61012460015481565b610124610191366004610b1b565b610362565b6101246101a4366004610ad8565b61051e565b6101246101b7366004610abd565b6107fd565b6101456101ca366004610b1b565b610842565b6101246101dd366004610abd565b60066020526000908152604090205481565b6101246101fd366004610abd565b6109d3565b610124610210366004610abd565b60036020526000908152604090205481565b6001600160a01b03821661026f5760405162461bcd60e51b815260206004820152600f60248201526e496e76616c6964206164647265737360881b60448201526064015b60405180910390fd5b600081116102cb5760405162461bcd60e51b815260206004820152602360248201527f4c6f616e2076616c75652073686f756c6420626520677265617465722074686160448201526206e20360ec1b6064820152608401610266565b6001600160a01b03909116600081815260056020908152604080832094909455600690529182204290556007805460018101825592527fa66cc928b5edb82af9bd49922954155ab7b0942694bea4ce44661d9a8736c68890910180546001600160a01b0319169091179055565b6007818154811061034857600080fd5b6000918252602090912001546001600160a01b0316905081565b600061036c610a77565b6002546001600160a01b038581169116146103995760405162461bcd60e51b815260040161026690610b57565b6000831180156103c157506001600160a01b0382166000908152600360205260409020548311155b61040d5760405162461bcd60e51b815260206004820152601960248201527f496e76616c6964207769746864726177616c20616d6f756e74000000000000006044820152606401610266565b6001600160a01b038216600090815260036020526040812054606490610434906002610b98565b61043e9190610baf565b9050600061044c8286610bd1565b6001600160a01b038516600090815260036020526040812080549293508792909190610479908490610be4565b909155505060405163a9059cbb60e01b81526001600160a01b0385811660048301526024820183905287169063a9059cbb906044016020604051808303816000875af11580156104cd573d6000803e3d6000fd5b505050506040513d601f19601f820116820180604052508101906104f19190610bf7565b61050d5760405162461bcd60e51b815260040161026690610c19565b5050600160005550815b9392505050565b60006001600160a01b03831661056d5760405162461bcd60e51b8152602060048201526014602482015273496e76616c6964206c6f616e206164647265737360601b6044820152606401610266565b600082116105cd5760405162461bcd60e51b815260206004820152602760248201527f5061796d656e7420616d6f756e742073686f756c6420626520677265617465726044820152660207468616e20360cc1b6064820152608401610266565b6001600160a01b0383166000908152600560205260409020548211156106465760405162461bcd60e51b815260206004820152602860248201527f5061796d656e742065786365656473206f75747374616e64696e67206c6f616e6044820152672062616c616e636560c01b6064820152608401610266565b6001600160a01b0383166000908152600660205260408120546106699042610be4565b9050600061067b6301e1338083610baf565b6001546001600160a01b038716600090815260056020526040812054929350916127109184916106ab9190610b98565b6106b59190610b98565b6106bf9190610baf565b905060008186106107055760006106d68388610be4565b6001600160a01b0389166000908152600560205260409020549091506106fd908290610be4565b915050610739565b61070f8683610be4565b6001600160a01b038816600090815260056020526040902054909250610736908390610bd1565b90505b6001600160a01b03878116600090815260056020908152604080832085905560069091529081902042905560025490516323b872dd60e01b8152336004820152306024820152604481018990529116906323b872dd906064016020604051808303816000875af11580156107b1573d6000803e3d6000fd5b505050506040513d601f19601f820116820180604052508101906107d59190610bf7565b6107f15760405162461bcd60e51b815260040161026690610c19565b93505050505b92915050565b6002546000906001600160a01b0383811691161461082d5760405162461bcd60e51b815260040161026690610b57565b50503360009081526003602052604090205490565b6002546001600160a01b038481169116146108935760405162461bcd60e51b8152602060048201526011602482015270546f6b656e206973206e6f74207344414960781b6044820152606401610266565b600082116108f35760405162461bcd60e51b815260206004820152602760248201527f4465706f73697420616d6f756e742073686f756c6420626520677265617465726044820152660207468616e20360cc1b6064820152608401610266565b6040516323b872dd60e01b81526001600160a01b038281166004830152306024830152604482018490528416906323b872dd906064016020604051808303816000875af1158015610948573d6000803e3d6000fd5b505050506040513d601f19601f8201168201806040525081019061096c9190610bf7565b6109885760405162461bcd60e51b815260040161026690610c19565b6001600160a01b038116600090815260036020526040812080548492906109b0908490610bd1565b90915550506001600160a01b031660009081526004602052604090204290555050565b6002546000906001600160a01b03838116911614610a035760405162461bcd60e51b815260040161026690610b57565b6000805b600754811015610a6b576005600060078381548110610a2857610a28610c42565b60009182526020808320909101546001600160a01b03168352820192909252604001902054610a579083610bd1565b915080610a6381610c58565b915050610a07565b50610517606482610baf565b600260005403610a9a57604051633ee5aeb560e01b815260040160405180910390fd5b6002600055565b80356001600160a01b0381168114610ab857600080fd5b919050565b600060208284031215610acf57600080fd5b61051782610aa1565b60008060408385031215610aeb57600080fd5b610af483610aa1565b946020939093013593505050565b600060208284031215610b1457600080fd5b5035919050565b600080600060608486031215610b3057600080fd5b610b3984610aa1565b925060208401359150610b4e60408501610aa1565b90509250925092565b6020808252601190820152704173736574206973206e6f74207344414960781b604082015260600190565b634e487b7160e01b600052601160045260246000fd5b80820281158282048414176107f7576107f7610b82565b600082610bcc57634e487b7160e01b600052601260045260246000fd5b500490565b808201808211156107f7576107f7610b82565b818103818111156107f7576107f7610b82565b600060208284031215610c0957600080fd5b8151801515811461051757600080fd5b6020808252600f908201526e151c985b9cd9995c8819985a5b1959608a1b604082015260600190565b634e487b7160e01b600052603260045260246000fd5b600060018201610c6a57610c6a610b82565b506001019056fea26469706673582212207ae6b02f0ed5429188867b5fef37223d1d8e1023c99ad2e247502897d80138fa64736f6c63430008140033",
    "linkReferences": {}
  },
  "methodIdentifiers": {
    "depositIntoStrategy(address,uint256,address)": "ed520138",
    "depositTimestamps(address)": "240be944",
    "deposits(address)": "fc7e286d",
    "homeLoanTimestamps(address)": "f108ef5b",
    "homeLoans(address)": "4e8c1ad8",
    "interestRate()": "7c3a00fd",
    "loanAddresses(uint256)": "6cbc6a28",
    "makePaymentForLoan(address,uint256)": "9b6d23b5",
    "maxValueOfLoan(address)": "f67c0daf",
    "maxWithdraw(address)": "ce96cb77",
    "newHomeLoan(address,uint256)": "29e39f24",
    "sDAIAddress()": "13b23bb1",
    "withdrawal(address,uint256,address)": "7d419b22"
  },
  "id": 21
}