{
  "abi": [
    {
      "anonymous": false,
      "inputs": [
        {
          "indexed": false,
          "internalType": "uint256",
          "name": "fundRequestId",
          "type": "uint256"
        }
      ],
      "name": "CancelFundRequest",
      "type": "event"
    },
    {
      "anonymous": false,
      "inputs": [
        {
          "indexed": true,
          "internalType": "bytes32",
          "name": "ilk",
          "type": "bytes32"
        },
        {
          "indexed": true,
          "internalType": "address",
          "name": "asset",
          "type": "address"
        },
        {
          "indexed": false,
          "internalType": "address",
          "name": "origin",
          "type": "address"
        },
        {
          "indexed": false,
          "internalType": "uint256",
          "name": "amount",
          "type": "uint256"
        }
      ],
      "name": "Deposit",
      "type": "event"
    },
    {
      "anonymous": false,
      "inputs": [
        {
          "indexed": true,
          "internalType": "address",
          "name": "asset",
          "type": "address"
        },
        {
          "indexed": false,
          "internalType": "uint256",
          "name": "amount",
          "type": "uint256"
        }
      ],
      "name": "DrawFunds",
      "type": "event"
    },
    {
      "anonymous": false,
      "inputs": [
        {
          "indexed": true,
          "internalType": "bytes32",
          "name": "what",
          "type": "bytes32"
        },
        {
          "indexed": false,
          "internalType": "address",
          "name": "data",
          "type": "address"
        }
      ],
      "name": "File",
      "type": "event"
    },
    {
      "anonymous": false,
      "inputs": [
        {
          "indexed": true,
          "internalType": "bytes32",
          "name": "ilk",
          "type": "bytes32"
        },
        {
          "indexed": true,
          "internalType": "address",
          "name": "asset",
          "type": "address"
        },
        {
          "indexed": false,
          "internalType": "uint256",
          "name": "fundRequestId",
          "type": "uint256"
        },
        {
          "indexed": false,
          "internalType": "uint256",
          "name": "amount",
          "type": "uint256"
        },
        {
          "indexed": false,
          "internalType": "string",
          "name": "info",
          "type": "string"
        }
      ],
      "name": "RequestFunds",
      "type": "event"
    },
    {
      "anonymous": false,
      "inputs": [
        {
          "indexed": true,
          "internalType": "bytes32",
          "name": "ilk",
          "type": "bytes32"
        },
        {
          "indexed": true,
          "internalType": "address",
          "name": "asset",
          "type": "address"
        },
        {
          "indexed": false,
          "internalType": "uint256",
          "name": "fundRequestId",
          "type": "uint256"
        },
        {
          "indexed": false,
          "internalType": "uint256",
          "name": "amountRequested",
          "type": "uint256"
        },
        {
          "indexed": false,
          "internalType": "uint256",
          "name": "returnAmount",
          "type": "uint256"
        }
      ],
      "name": "ReturnFunds",
      "type": "event"
    },
    {
      "anonymous": false,
      "inputs": [
        {
          "indexed": true,
          "internalType": "bytes32",
          "name": "ilk",
          "type": "bytes32"
        },
        {
          "indexed": true,
          "internalType": "address",
          "name": "asset",
          "type": "address"
        },
        {
          "indexed": false,
          "internalType": "address",
          "name": "destination",
          "type": "address"
        },
        {
          "indexed": false,
          "internalType": "uint256",
          "name": "amount",
          "type": "uint256"
        }
      ],
      "name": "Withdraw",
      "type": "event"
    },
    {
      "inputs": [],
      "name": "arranger",
      "outputs": [
        {
          "internalType": "address",
          "name": "",
          "type": "address"
        }
      ],
      "stateMutability": "view",
      "type": "function"
    },
    {
      "inputs": [
        {
          "internalType": "uint256",
          "name": "fundRequestId",
          "type": "uint256"
        }
      ],
      "name": "cancelFundRequest",
      "outputs": [],
      "stateMutability": "nonpayable",
      "type": "function"
    },
    {
      "inputs": [
        {
          "internalType": "bytes32",
          "name": "ilk",
          "type": "bytes32"
        },
        {
          "internalType": "address",
          "name": "asset",
          "type": "address"
        },
        {
          "internalType": "uint256",
          "name": "amount",
          "type": "uint256"
        }
      ],
      "name": "deposit",
      "outputs": [],
      "stateMutability": "nonpayable",
      "type": "function"
    },
    {
      "inputs": [
        {
          "internalType": "bytes32",
          "name": "",
          "type": "bytes32"
        },
        {
          "internalType": "address",
          "name": "",
          "type": "address"
        }
      ],
      "name": "deposits",
      "outputs": [
        {
          "internalType": "uint256",
          "name": "",
          "type": "uint256"
        }
      ],
      "stateMutability": "view",
      "type": "function"
    },
    {
      "inputs": [
        {
          "internalType": "address",
          "name": "asset",
          "type": "address"
        },
        {
          "internalType": "uint256",
          "name": "amount",
          "type": "uint256"
        }
      ],
      "name": "drawFunds",
      "outputs": [],
      "stateMutability": "nonpayable",
      "type": "function"
    },
    {
      "inputs": [
        {
          "internalType": "address",
          "name": "asset",
          "type": "address"
        }
      ],
      "name": "drawableFunds",
      "outputs": [
        {
          "internalType": "uint256",
          "name": "drawableFunds_",
          "type": "uint256"
        }
      ],
      "stateMutability": "view",
      "type": "function"
    },
    {
      "inputs": [
        {
          "internalType": "bytes32",
          "name": "what",
          "type": "bytes32"
        },
        {
          "internalType": "address",
          "name": "data",
          "type": "address"
        }
      ],
      "name": "file",
      "outputs": [],
      "stateMutability": "nonpayable",
      "type": "function"
    },
    {
      "inputs": [
        {
          "internalType": "uint256",
          "name": "fundRequestId",
          "type": "uint256"
        }
      ],
      "name": "getFundRequest",
      "outputs": [
        {
          "components": [
            {
              "internalType": "enum IArrangerConduit.StatusEnum",
              "name": "status",
              "type": "uint8"
            },
            {
              "internalType": "address",
              "name": "asset",
              "type": "address"
            },
            {
              "internalType": "bytes32",
              "name": "ilk",
              "type": "bytes32"
            },
            {
              "internalType": "uint256",
              "name": "amountRequested",
              "type": "uint256"
            },
            {
              "internalType": "uint256",
              "name": "amountFilled",
              "type": "uint256"
            },
            {
              "internalType": "string",
              "name": "info",
              "type": "string"
            }
          ],
          "internalType": "struct IArrangerConduit.FundRequest",
          "name": "fundRequest",
          "type": "tuple"
        }
      ],
      "stateMutability": "view",
      "type": "function"
    },
    {
      "inputs": [],
      "name": "getFundRequestsLength",
      "outputs": [
        {
          "internalType": "uint256",
          "name": "fundRequestsLength",
          "type": "uint256"
        }
      ],
      "stateMutability": "view",
      "type": "function"
    },
    {
      "inputs": [
        {
          "internalType": "uint256",
          "name": "fundRequestId",
          "type": "uint256"
        }
      ],
      "name": "isCancelable",
      "outputs": [
        {
          "internalType": "bool",
          "name": "isCancelable_",
          "type": "bool"
        }
      ],
      "stateMutability": "view",
      "type": "function"
    },
    {
      "inputs": [
        {
          "internalType": "bytes32",
          "name": "",
          "type": "bytes32"
        },
        {
          "internalType": "address",
          "name": "",
          "type": "address"
        }
      ],
      "name": "maxDeposit",
      "outputs": [
        {
          "internalType": "uint256",
          "name": "maxDeposit_",
          "type": "uint256"
        }
      ],
      "stateMutability": "pure",
      "type": "function"
    },
    {
      "inputs": [
        {
          "internalType": "bytes32",
          "name": "ilk",
          "type": "bytes32"
        },
        {
          "internalType": "address",
          "name": "asset",
          "type": "address"
        }
      ],
      "name": "maxWithdraw",
      "outputs": [
        {
          "internalType": "uint256",
          "name": "maxWithdraw_",
          "type": "uint256"
        }
      ],
      "stateMutability": "view",
      "type": "function"
    },
    {
      "inputs": [],
      "name": "registry",
      "outputs": [
        {
          "internalType": "address",
          "name": "",
          "type": "address"
        }
      ],
      "stateMutability": "view",
      "type": "function"
    },
    {
      "inputs": [
        {
          "internalType": "bytes32",
          "name": "ilk",
          "type": "bytes32"
        },
        {
          "internalType": "address",
          "name": "asset",
          "type": "address"
        },
        {
          "internalType": "uint256",
          "name": "amount",
          "type": "uint256"
        },
        {
          "internalType": "string",
          "name": "info",
          "type": "string"
        }
      ],
      "name": "requestFunds",
      "outputs": [
        {
          "internalType": "uint256",
          "name": "fundRequestId",
          "type": "uint256"
        }
      ],
      "stateMutability": "nonpayable",
      "type": "function"
    },
    {
      "inputs": [
        {
          "internalType": "bytes32",
          "name": "",
          "type": "bytes32"
        },
        {
          "internalType": "address",
          "name": "",
          "type": "address"
        }
      ],
      "name": "requestedFunds",
      "outputs": [
        {
          "internalType": "uint256",
          "name": "",
          "type": "uint256"
        }
      ],
      "stateMutability": "view",
      "type": "function"
    },
    {
      "inputs": [
        {
          "internalType": "uint256",
          "name": "fundRequestId",
          "type": "uint256"
        },
        {
          "internalType": "uint256",
          "name": "returnAmount",
          "type": "uint256"
        }
      ],
      "name": "returnFunds",
      "outputs": [],
      "stateMutability": "nonpayable",
      "type": "function"
    },
    {
      "inputs": [],
      "name": "roles",
      "outputs": [
        {
          "internalType": "address",
          "name": "",
          "type": "address"
        }
      ],
      "stateMutability": "view",
      "type": "function"
    },
    {
      "inputs": [
        {
          "internalType": "address",
          "name": "",
          "type": "address"
        }
      ],
      "name": "totalDeposits",
      "outputs": [
        {
          "internalType": "uint256",
          "name": "",
          "type": "uint256"
        }
      ],
      "stateMutability": "view",
      "type": "function"
    },
    {
      "inputs": [
        {
          "internalType": "address",
          "name": "",
          "type": "address"
        }
      ],
      "name": "totalRequestedFunds",
      "outputs": [
        {
          "internalType": "uint256",
          "name": "",
          "type": "uint256"
        }
      ],
      "stateMutability": "view",
      "type": "function"
    },
    {
      "inputs": [
        {
          "internalType": "address",
          "name": "",
          "type": "address"
        }
      ],
      "name": "totalWithdrawableFunds",
      "outputs": [
        {
          "internalType": "uint256",
          "name": "",
          "type": "uint256"
        }
      ],
      "stateMutability": "view",
      "type": "function"
    },
    {
      "inputs": [
        {
          "internalType": "address",
          "name": "",
          "type": "address"
        }
      ],
      "name": "totalWithdrawals",
      "outputs": [
        {
          "internalType": "uint256",
          "name": "",
          "type": "uint256"
        }
      ],
      "stateMutability": "view",
      "type": "function"
    },
    {
      "inputs": [
        {
          "internalType": "address",
          "name": "",
          "type": "address"
        }
      ],
      "name": "wards",
      "outputs": [
        {
          "internalType": "uint256",
          "name": "",
          "type": "uint256"
        }
      ],
      "stateMutability": "view",
      "type": "function"
    },
    {
      "inputs": [
        {
          "internalType": "bytes32",
          "name": "ilk",
          "type": "bytes32"
        },
        {
          "internalType": "address",
          "name": "asset",
          "type": "address"
        },
        {
          "internalType": "uint256",
          "name": "maxAmount",
          "type": "uint256"
        }
      ],
      "name": "withdraw",
      "outputs": [
        {
          "internalType": "uint256",
          "name": "amount",
          "type": "uint256"
        }
      ],
      "stateMutability": "nonpayable",
      "type": "function"
    },
    {
      "inputs": [
        {
          "internalType": "bytes32",
          "name": "",
          "type": "bytes32"
        },
        {
          "internalType": "address",
          "name": "",
          "type": "address"
        }
      ],
      "name": "withdrawableFunds",
      "outputs": [
        {
          "internalType": "uint256",
          "name": "",
          "type": "uint256"
        }
      ],
      "stateMutability": "view",
      "type": "function"
    },
    {
      "inputs": [
        {
          "internalType": "bytes32",
          "name": "",
          "type": "bytes32"
        },
        {
          "internalType": "address",
          "name": "",
          "type": "address"
        }
      ],
      "name": "withdrawals",
      "outputs": [
        {
          "internalType": "uint256",
          "name": "",
          "type": "uint256"
        }
      ],
      "stateMutability": "view",
      "type": "function"
    }
  ],
  "bytecode": {
    "object": "0x608060405234801561001057600080fd5b50611bbd806100206000396000f3fe608060405234801561001057600080fd5b50600436106101735760003560e01c8063933d9476116100de578063d4e8be8311610097578063dcb37d8f11610071578063dcb37d8f146103c6578063e0245d33146103f1578063e940325614610426578063f9cc6b6f1461044657600080fd5b8063d4e8be8314610398578063d5c2db14146103ab578063d954863c146103b357600080fd5b8063933d9476146102fd578063a6fb97d114610310578063bf353dbb14610323578063c4f7299714610343578063d2543ccb1461035a578063d31d2fad1461036d57600080fd5b80634f1c2c31116101305780634f1c2c3114610241578063633b626d1461026c57806369f7caba1461028c57806374d47dc5146102ac5780637b103999146102d75780638a11329d146102ea57600080fd5b806337cd2f7e14610178578063392f5f641461018d57806346ec3b7b146101bd5780634857501f146101d05780634a765335146101f35780634dfa843414610221575b600080fd5b61018b61018636600461169e565b610459565b005b6005546101a0906001600160a01b031681565b6040516001600160a01b0390911681526020015b60405180910390f35b6003546101a0906001600160a01b031681565b6101e36101de3660046116c0565b610752565b60405190151581526020016101b4565b6102136102013660046116ee565b60086020526000908152604090205481565b6040519081526020016101b4565b61023461022f3660046116c0565b610795565b6040516101b4919061176e565b61021361024f3660046117eb565b600a60209081526000928352604080842090915290825290205481565b61021361027a3660046116ee565b60076020526000908152604090205481565b61021361029a3660046116ee565b60096020526000908152604090205481565b6102136102ba3660046117eb565b600d60209081526000928352604080842090915290825290205481565b6004546101a0906001600160a01b031681565b61018b6102f836600461181b565b610905565b61018b61030b3660046116c0565b610ac6565b61021361031e366004611847565b610d5b565b6102136103313660046116ee565b60016020526000908152604090205481565b6102136103513660046117eb565b50600019919050565b610213610368366004611895565b610ffc565b61021361037b3660046117eb565b600c60209081526000928352604080842090915290825290205481565b61018b6103a63660046117eb565b6111ae565b600254610213565b61018b6103c1366004611847565b611334565b6102136103d43660046117eb565b600b60209081526000928352604080842090915290825290205481565b6102136103ff3660046117eb565b6000918252600c602090815260408084206001600160a01b03909316845291905290205490565b6102136104343660046116ee565b60066020526000908152604090205481565b6102136104543660046116ee565b61153a565b6003546001600160a01b031633146104b85760405162461bcd60e51b815260206004820152601c60248201527f417272616e676572436f6e647569742f6e6f742d617272616e6765720000000060448201526064015b60405180910390fd5b6000600283815481106104cd576104cd61196c565b6000918252602090912060059091020190506001815460ff1660038111156104f7576104f7611712565b146105445760405162461bcd60e51b815260206004820152601e60248201527f417272616e676572436f6e647569742f696e76616c69642d737461747573000060448201526064016104af565b8054600182015460028301546000828152600c602090815260408083206101009096046001600160a01b03168084529590915281208054879290610589908490611998565b90915550506001600160a01b038316600090815260086020526040812080548792906105b6908490611998565b90915550506000828152600b602090815260408083206001600160a01b0387168452909152812080548392906105ed9084906119ab565b90915550506001600160a01b0383166000908152600760205260408120805483929061061a9084906119ab565b90915550506003848101869055845460ff1916178085556040516323b872dd60e01b8152336004820152306024820152604481018790526001600160a01b0361010090920491909116906323b872dd906064016020604051808303816000875af115801561068c573d6000803e3d6000fd5b505050506040513d601f19601f820116820180604052508101906106b091906119be565b6106fc5760405162461bcd60e51b815260206004820152601f60248201527f417272616e676572436f6e647569742f7472616e736665722d6661696c65640060448201526064016104af565b60408051878152602081018390529081018690526001600160a01b0384169083907f20e10bf859e24680d383a8a5a75dd133e8150398edfcaed7740a1c0e405757159060600160405180910390a3505050505050565b60006001600283815481106107695761076961196c565b600091825260209091206005909102015460ff16600381111561078e5761078e611712565b1492915050565b6107db6040805160c08101909152806000815260200160006001600160a01b03168152602001600080191681526020016000815260200160008152602001606081525090565b600282815481106107ee576107ee61196c565b600091825260209091206040805160c081019091526005909202018054829060ff16600381111561082157610821611712565b600381111561083257610832611712565b8152815461010090046001600160a01b0316602082015260018201546040820152600282015460608201526003820154608082015260048201805460a09092019161087c906119e0565b80601f01602080910402602001604051908101604052809291908181526020018280546108a8906119e0565b80156108f55780601f106108ca576101008083540402835291602001916108f5565b820191906000526020600020905b8154815290600101906020018083116108d857829003601f168201915b5050505050815250509050919050565b6003546001600160a01b0316331461095f5760405162461bcd60e51b815260206004820152601c60248201527f417272616e676572436f6e647569742f6e6f742d617272616e6765720000000060448201526064016104af565b6109688261153a565b8111156109c25760405162461bcd60e51b815260206004820152602260248201527f417272616e676572436f6e647569742f696e73756666696369656e742d66756e604482015261647360f01b60648201526084016104af565b60405163a9059cbb60e01b8152336004820152602481018290526001600160a01b0383169063a9059cbb906044016020604051808303816000875af1158015610a0f573d6000803e3d6000fd5b505050506040513d601f19601f82011682018060405250810190610a3391906119be565b610a7f5760405162461bcd60e51b815260206004820152601f60248201527f417272616e676572436f6e647569742f7472616e736665722d6661696c65640060448201526064016104af565b816001600160a01b03167ff085c28bde36fd9971e56c50dabd917d29c3dcbc3b42c49c6dae635e14ae63cb82604051610aba91815260200190565b60405180910390a25050565b600060028281548110610adb57610adb61196c565b600091825260209091206040805160c081019091526005909202018054829060ff166003811115610b0e57610b0e611712565b6003811115610b1f57610b1f611712565b8152815461010090046001600160a01b0316602082015260018201546040820152600282015460608201526003820154608082015260048201805460a090920191610b69906119e0565b80601f0160208091040260200160405190810160405280929190818152602001828054610b95906119e0565b8015610be25780601f10610bb757610100808354040283529160200191610be2565b820191906000526020600020905b815481529060010190602001808311610bc557829003601f168201915b505050505081525050905060016003811115610c0057610c00611712565b81516003811115610c1357610c13611712565b14610c605760405162461bcd60e51b815260206004820152601e60248201527f417272616e676572436f6e647569742f696e76616c69642d737461747573000060448201526064016104af565b60208101516040820151610c73816115c4565b606083015160028054819087908110610c8e57610c8e61196c565b60009182526020909120600590910201805460ff19166001836003811115610cb857610cb8611712565b02179055506000828152600b602090815260408083206001600160a01b038716845290915281208054839290610cef9084906119ab565b90915550506001600160a01b03831660009081526007602052604081208054839290610d1c9084906119ab565b90915550506040518581527f8a53ee25106d5ac0078e6fbdd2beac3cb96458adcb31a00d35bf94428236d8229060200160405180910390a15050505050565b600083610d67816115c4565b6000858152600c602090815260408083206001600160a01b0388168452909152902054808411610d975783610d99565b805b6000878152600c602090815260408083206001600160a01b038a168452909152812080549295508592909190610dd09084906119ab565b90915550506001600160a01b03851660009081526008602052604081208054859290610dfd9084906119ab565b90915550506000868152600d602090815260408083206001600160a01b038916845290915281208054859290610e34908490611998565b90915550506001600160a01b03851660009081526009602052604081208054859290610e61908490611998565b909155505060048054604051636610bf7f60e01b81529182018890526000916001600160a01b0390911690636610bf7f90602401602060405180830381865afa158015610eb2573d6000803e3d6000fd5b505050506040513d601f19601f82011682018060405250810190610ed69190611a1a565b60405163a9059cbb60e01b81526001600160a01b038083166004830152602482018790529192509087169063a9059cbb906044016020604051808303816000875af1158015610f29573d6000803e3d6000fd5b505050506040513d601f19601f82011682018060405250810190610f4d91906119be565b610faa5760405162461bcd60e51b815260206004820152602860248201527f417272616e676572436f6e647569742f77697468647261772d7472616e7366656044820152671c8b59985a5b195960c21b60648201526084016104af565b604080516001600160a01b0383811682526020820187905288169189917fcd6ac346191b4b7531743e58f243dd4d350a52a9186641c1e5eac22b95aaedbe910160405180910390a35050509392505050565b600084611008816115c4565b600280546040805160c08101825260018082526001600160a01b038a1660208301529181018a90526060810188905260006080820181905260a082018890528284018555939093528251600583027f405787fa12a823e0f2b7631cc41b3ba8828b3321ca811111fa75cd3aa3bb5ace018054939650929091839160ff19169083600381111561109957611099611712565b0217905550602082015181546001600160a01b0390911661010002610100600160a81b031990911617815560408201516001820155606082015160028201556080820151600382015560a082015160048201906110f69082611a86565b5050506000868152600b602090815260408083206001600160a01b03891684529091528120805486929061112b908490611998565b90915550506001600160a01b03851660009081526007602052604081208054869290611158908490611998565b92505081905550846001600160a01b0316867fc37a21b1f83f8a603ed9e2fd12057edb7bfdaa66bea994899c868fc70f57e50784878760405161119d93929190611b46565b60405180910390a350949350505050565b336000908152600160208190526040909120541461120e5760405162461bcd60e51b815260206004820152601e60248201527f417272616e676572436f6e647569742f6e6f742d617574686f72697a6564000060448201526064016104af565b816730b93930b733b2b960c11b0361124057600380546001600160a01b0319166001600160a01b0383161790556112f9565b8167726567697374727960c01b0361127257600480546001600160a01b0319166001600160a01b0383161790556112f9565b8164726f6c657360d81b036112a157600580546001600160a01b0319166001600160a01b0383161790556112f9565b60405162461bcd60e51b815260206004820152602760248201527f417272616e676572436f6e647569742f66696c652d756e7265636f676e697a65604482015266642d706172616d60c81b60648201526084016104af565b6040516001600160a01b038216815282907f8fef588b5fc1afbf5b2f06c1a435d513f208da2e6704c3d8f0e0ec91167066ba90602001610aba565b8261133e816115c4565b6000848152600a602090815260408083206001600160a01b038716845290915281208054849290611370908490611998565b90915550506001600160a01b0383166000908152600660205260408120805484929061139d908490611998565b909155505060048054604051636610bf7f60e01b81529182018690526000916001600160a01b0390911690636610bf7f90602401602060405180830381865afa1580156113ee573d6000803e3d6000fd5b505050506040513d601f19601f820116820180604052508101906114129190611a1a565b6040516323b872dd60e01b81526001600160a01b03808316600483015230602483015260448201869052919250908516906323b872dd906064016020604051808303816000875af115801561146b573d6000803e3d6000fd5b505050506040513d601f19601f8201168201806040525081019061148f91906119be565b6114eb5760405162461bcd60e51b815260206004820152602760248201527f417272616e676572436f6e647569742f6465706f7369742d7472616e736665726044820152660b59985a5b195960ca1b60648201526084016104af565b604080516001600160a01b0383811682526020820186905286169187917fc95ddcaddf83340b68d0d44c01b1703f5d28d0611a3fd87e69d79ba7e2ac21d3910160405180910390a35050505050565b6001600160a01b0381166000818152600860205260408082205490516370a0823160e01b8152306004820152919290916370a0823190602401602060405180830381865afa158015611590573d6000803e3d6000fd5b505050506040513d601f19601f820116820180604052508101906115b49190611b6e565b6115be91906119ab565b92915050565b60055460405163784c0a9160e01b8152600481018390523360248201523060448201526000356001600160e01b03191660648201526001600160a01b039091169063784c0a9190608401602060405180830381865afa15801561162b573d6000803e3d6000fd5b505050506040513d601f19601f8201168201806040525081019061164f91906119be565b61169b5760405162461bcd60e51b815260206004820152601e60248201527f417272616e676572436f6e647569742f6e6f742d617574686f72697a6564000060448201526064016104af565b50565b600080604083850312156116b157600080fd5b50508035926020909101359150565b6000602082840312156116d257600080fd5b5035919050565b6001600160a01b038116811461169b57600080fd5b60006020828403121561170057600080fd5b813561170b816116d9565b9392505050565b634e487b7160e01b600052602160045260246000fd5b6000815180845260005b8181101561174e57602081850181015186830182015201611732565b506000602082860101526020601f19601f83011685010191505092915050565b60208152600082516004811061179457634e487b7160e01b600052602160045260246000fd5b8060208401525060018060a01b0360208401511660408301526040830151606083015260608301516080830152608083015160a083015260a083015160c0808401526117e360e0840182611728565b949350505050565b600080604083850312156117fe57600080fd5b823591506020830135611810816116d9565b809150509250929050565b6000806040838503121561182e57600080fd5b8235611839816116d9565b946020939093013593505050565b60008060006060848603121561185c57600080fd5b83359250602084013561186e816116d9565b929592945050506040919091013590565b634e487b7160e01b600052604160045260246000fd5b600080600080608085870312156118ab57600080fd5b8435935060208501356118bd816116d9565b925060408501359150606085013567ffffffffffffffff808211156118e157600080fd5b818701915087601f8301126118f557600080fd5b8135818111156119075761190761187f565b604051601f8201601f19908116603f0116810190838211818310171561192f5761192f61187f565b816040528281528a602084870101111561194857600080fd5b82602086016020830137600060208483010152809550505050505092959194509250565b634e487b7160e01b600052603260045260246000fd5b634e487b7160e01b600052601160045260246000fd5b808201808211156115be576115be611982565b818103818111156115be576115be611982565b6000602082840312156119d057600080fd5b8151801515811461170b57600080fd5b600181811c908216806119f457607f821691505b602082108103611a1457634e487b7160e01b600052602260045260246000fd5b50919050565b600060208284031215611a2c57600080fd5b815161170b816116d9565b601f821115611a8157600081815260208120601f850160051c81016020861015611a5e5750805b601f850160051c820191505b81811015611a7d57828155600101611a6a565b5050505b505050565b815167ffffffffffffffff811115611aa057611aa061187f565b611ab481611aae84546119e0565b84611a37565b602080601f831160018114611ae95760008415611ad15750858301515b600019600386901b1c1916600185901b178555611a7d565b600085815260208120601f198616915b82811015611b1857888601518255948401946001909101908401611af9565b5085821015611b365787850151600019600388901b60f8161c191681555b5050505050600190811b01905550565b838152826020820152606060408201526000611b656060830184611728565b95945050505050565b600060208284031215611b8057600080fd5b505191905056fea2646970667358221220b4798e2f2572da042d45c80fcc1cda876bcec86074759ea119a00613ebc2581064736f6c63430008140033",
    "linkReferences": {}
  },
  "methodIdentifiers": {
    "arranger()": "46ec3b7b",
    "cancelFundRequest(uint256)": "933d9476",
    "deposit(bytes32,address,uint256)": "d954863c",
    "deposits(bytes32,address)": "4f1c2c31",
    "drawFunds(address,uint256)": "8a11329d",
    "drawableFunds(address)": "f9cc6b6f",
    "file(bytes32,address)": "d4e8be83",
    "getFundRequest(uint256)": "4dfa8434",
    "getFundRequestsLength()": "d5c2db14",
    "isCancelable(uint256)": "4857501f",
    "maxDeposit(bytes32,address)": "c4f72997",
    "maxWithdraw(bytes32,address)": "e0245d33",
    "registry()": "7b103999",
    "requestFunds(bytes32,address,uint256,string)": "d2543ccb",
    "requestedFunds(bytes32,address)": "dcb37d8f",
    "returnFunds(uint256,uint256)": "37cd2f7e",
    "roles()": "392f5f64",
    "totalDeposits(address)": "e9403256",
    "totalRequestedFunds(address)": "633b626d",
    "totalWithdrawableFunds(address)": "4a765335",
    "totalWithdrawals(address)": "69f7caba",
    "wards(address)": "bf353dbb",
    "withdraw(bytes32,address,uint256)": "a6fb97d1",
    "withdrawableFunds(bytes32,address)": "d31d2fad",
    "withdrawals(bytes32,address)": "74d47dc5"
  },
  "id": 97
}