{
  "abi": [
    {
      "inputs": [],
      "name": "ABSTRACT",
      "outputs": [
        {
          "internalType": "contract ChainlogAbstract",
          "name": "",
          "type": "address"
        }
      ],
      "stateMutability": "view",
      "type": "function"
    },
    {
      "inputs": [],
      "name": "ADDRESS",
      "outputs": [
        {
          "internalType": "address",
          "name": "",
          "type": "address"
        }
      ],
      "stateMutability": "view",
      "type": "function"
    }
  ],
  "bytecode": {
    "object": "0x6080604052348015600f57600080fd5b5060a38061001e6000396000f3fe6080604052348015600f57600080fd5b506004361060325760003560e01c8063a92d49af146037578063b51ce63d146037575b600080fd5b605173da0ab1e0017debcd72be8599041a2aa3ba7e740f81565b6040516001600160a01b03909116815260200160405180910390f3fea264697066735822122006b63169acb0a44224b3e5bde315d986cdd6a372bac070050e900de1e61a88a464736f6c63430008140033",
    "linkReferences": {}
  },
  "methodIdentifiers": {
    "ABSTRACT()": "a92d49af",
    "ADDRESS()": "b51ce63d"
  },
  "id": 17
}