{
  "abi": [
    {
      "inputs": [],
      "name": "peek",
      "outputs": [
        {
          "internalType": "bytes32",
          "name": "",
          "type": "bytes32"
        },
        {
          "internalType": "bool",
          "name": "",
          "type": "bool"
        }
      ],
      "stateMutability": "view",
      "type": "function"
    },
    {
      "inputs": [
        {
          "internalType": "bytes32",
          "name": "wut",
          "type": "bytes32"
        }
      ],
      "name": "poke",
      "outputs": [],
      "stateMutability": "nonpayable",
      "type": "function"
    },
    {
      "inputs": [],
      "name": "read",
      "outputs": [
        {
          "internalType": "bytes32",
          "name": "",
          "type": "bytes32"
        }
      ],
      "stateMutability": "view",
      "type": "function"
    },
    {
      "inputs": [],
      "name": "void",
      "outputs": [],
      "stateMutability": "nonpayable",
      "type": "function"
    }
  ],
  "bytecode": {
    "object": "0x608060405234801561001057600080fd5b5061016f806100206000396000f3fe608060405234801561001057600080fd5b506004361061004c5760003560e01c80631504460f1461005157806357de26a41461007557806359e02dd714610090578063ac4c25b2146100ae575b600080fd5b61007361005f366004610120565b60019081556000805460ff19169091179055565b005b61007d6100c2565b6040519081526020015b60405180910390f35b60015460005460ff1660408051928352901515602083015201610087565b61007360006001819055805460ff19169055565b60008060006100da600154600054909160ff90911690565b90925090508061011a5760405162461bcd60e51b81526020600482015260076024820152661a185e8b5b9bdd60ca1b604482015260640160405180910390fd5b50919050565b60006020828403121561013257600080fd5b503591905056fea26469706673582212204e5afc82430c8061833e0c96fd31c7f1577a9dbcee63a1312b7189b19cf4668364736f6c63430008140033",
    "linkReferences": {}
  },
  "methodIdentifiers": {
    "peek()": "59e02dd7",
    "poke(bytes32)": "1504460f",
    "read()": "57de26a4",
    "void()": "ac4c25b2"
  },
  "id": 71
}