{
  "abi": [
    {
      "inputs": [
        {
          "components": [
            {
              "internalType": "contract ChainlogAbstract",
              "name": "chainlog",
              "type": "address"
            },
            {
              "internalType": "contract VatAbstract",
              "name": "vat",
              "type": "address"
            },
            {
              "internalType": "contract DaiJoinAbstract",
              "name": "daiJoin",
              "type": "address"
            },
            {
              "internalType": "contract DaiAbstract",
              "name": "dai",
              "type": "address"
            },
            {
              "internalType": "contract VowAbstract",
              "name": "vow",
              "type": "address"
            },
            {
              "internalType": "contract DogAbstract",
              "name": "dog",
              "type": "address"
            },
            {
              "internalType": "contract PotAbstract",
              "name": "pot",
              "type": "address"
            },
            {
              "internalType": "contract JugAbstract",
              "name": "jug",
              "type": "address"
            },
            {
              "internalType": "contract SpotAbstract",
              "name": "spotter",
              "type": "address"
            },
            {
              "internalType": "contract EndAbstract",
              "name": "end",
              "type": "address"
            },
            {
              "internalType": "contract CureAbstract",
              "name": "cure",
              "type": "address"
            },
            {
              "internalType": "contract FlapAbstract",
              "name": "flap",
              "type": "address"
            },
            {
              "internalType": "contract FlopAbstract",
              "name": "flop",
              "type": "address"
            },
            {
              "internalType": "contract ESMAbstract",
              "name": "esm",
              "type": "address"
            }
          ],
          "internalType": "struct DssInstance",
          "name": "_dss",
          "type": "tuple"
        }
      ],
      "stateMutability": "nonpayable",
      "type": "constructor"
    },
    {
      "inputs": [
        {
          "internalType": "contract GemJoinAbstract",
          "name": "join",
          "type": "address"
        },
        {
          "internalType": "uint256",
          "name": "amount",
          "type": "uint256"
        }
      ],
      "name": "createAuction",
      "outputs": [],
      "stateMutability": "nonpayable",
      "type": "function"
    }
  ],
  "bytecode": {
    "object": "0x60806040523480156200001157600080fd5b5060405162001636380380620016368339810160408190526200003491620001b8565b8051600080546001600160a01b03199081166001600160a01b0393841617909155602083015160018054831691841691909117905560408301516002805483169184169190911790556060830151600380548316918416919091179055608083015160048054831691841691909117905560a083015160058054831691841691909117905560c083015160068054831691841691909117905560e0830151600780548316918416919091179055610100830151600880548316918416919091179055610120830151600980548316918416919091179055610140830151600a80548316918416919091179055610160830151600b80548316918416919091179055610180830151600c805483169184169190911790556101a090920151600d80549093169116179055620002e7565b6040516101c081016001600160401b03811182821017156200019557634e487b7160e01b600052604160045260246000fd5b60405290565b80516001600160a01b0381168114620001b357600080fd5b919050565b60006101c08284031215620001cc57600080fd5b620001d662000163565b620001e1836200019b565b8152620001f1602084016200019b565b602082015262000204604084016200019b565b604082015262000217606084016200019b565b60608201526200022a608084016200019b565b60808201526200023d60a084016200019b565b60a08201526200025060c084016200019b565b60c08201526200026360e084016200019b565b60e0820152610100620002788185016200019b565b908201526101206200028c8482016200019b565b90820152610140620002a08482016200019b565b90820152610160620002b48482016200019b565b90820152610180620002c88482016200019b565b908201526101a0620002dc8482016200019b565b908201529392505050565b61133f80620002f76000396000f3fe608060405234801561001057600080fd5b506004361061002b5760003560e01c8063f7e8829814610030575b600080fd5b61004361003e36600461107b565b610045565b005b6000826001600160a01b0316637bd2bea76040518163ffffffff1660e01b8152600401602060405180830381865afa158015610085573d6000803e3d6000fd5b505050506040513d601f19601f820116820180604052508101906100a991906110a7565b90506000836001600160a01b031663c5ce281e6040518163ffffffff1660e01b8152600401602060405180830381865afa1580156100eb573d6000803e3d6000fd5b505050506040513d601f19601f8201168201806040525081019061010f91906110cb565b6040516370a0823160e01b81523060048201529091506000906001600160a01b038416906370a0823190602401602060405180830381865afa158015610159573d6000803e3d6000fd5b505050506040513d601f19601f8201168201806040525081019061017d91906110cb565b90506101936001600160a01b038416308661071b565b604051636eb1769f60e11b81523060048201526001600160a01b0386811660248301526000919085169063dd62ed3e90604401602060405180830381865afa1580156101e3573d6000803e3d6000fd5b505050506040513d601f19601f8201168201806040525081019061020791906110cb565b60405163095ea7b360e01b81529091506001600160a01b0385169063095ea7b39061023890899089906004016110e4565b6020604051808303816000875af1158015610257573d6000803e3d6000fd5b505050506040513d601f19601f8201168201806040525081019061027b91906110fd565b50604051633b4da69f60e01b81526001600160a01b03871690633b4da69f906102aa90309089906004016110e4565b600060405180830381600087803b1580156102c457600080fd5b505af11580156102d8573d6000803e3d6000fd5b506102f1925050506001600160a01b038516308461071b565b60405163095ea7b360e01b81526001600160a01b0385169063095ea7b39061031f90899085906004016110e4565b6020604051808303816000875af115801561033e573d6000803e3d6000fd5b505050506040513d601f19601f8201168201806040525081019061036291906110fd565b50600154604051636cb1c69b60e11b81526004810185905260009182916001600160a01b039091169063d9638d369060240160a060405180830381865afa1580156103b1573d6000803e3d6000fd5b505050506040513d601f19601f820116820180604052508101906103d5919061111f565b5050925092505060008288836103eb9190611175565b6103f59190611192565b90506000876001600160a01b031663313ce5676040518163ffffffff1660e01b8152600401602060405180830381865afa158015610437573d6000803e3d6000fd5b505050506040513d601f19601f8201168201806040525081019061045b91906110cb565b6104669060126111b4565b61047190600a6112ab565b61047b908a611175565b600154604051637608870360e01b8152600481018a905230602482018190526044820181905260648201526084810183905260a481018590529192506001600160a01b03169063760887039060c401600060405180830381600087803b1580156104e457600080fd5b505af11580156104f8573d6000803e3d6000fd5b505060015460405163bf353dbb60e01b8152306004820152600093506001600160a01b03909116915063bf353dbb90602401602060405180830381865afa158015610547573d6000803e3d6000fd5b505050506040513d601f19601f8201168201806040525081019061056b91906110cb565b60018054919250610587916001600160a01b031690309061072b565b6001546001600160a01b0316631a0b287e896105a4600288611192565b6040516001600160e01b031960e085901b1681526004810192909252631cdc1bdd60e21b60248301526044820152606401600060405180830381600087803b1580156105ef57600080fd5b505af1158015610603573d6000803e3d6000fd5b5050600554604051631db3312160e31b8152600481018c9052306024820181905260448201526001600160a01b03909116925063ed99890891506064016020604051808303816000875af115801561065f573d6000803e3d6000fd5b505050506040513d601f19601f8201168201806040525081019061068391906110cb565b50600154604051630d05943f60e11b8152600481018a9052631cdc1bdd60e21b6024820152604481018690526001600160a01b0390911690631a0b287e90606401600060405180830381600087803b1580156106de57600080fd5b505af11580156106f2573d6000803e3d6000fd5b505060015461070e92506001600160a01b03169050308361072b565b5050505050505050505050565b610726838383610736565b505050565b610726838383610d1d565b6040516370a0823160e01b81526001600160a01b0383811660048301528291908516906370a0823190602401602060405180830381865afa15801561077f573d6000803e3d6000fd5b505050506040513d601f19601f820116820180604052508101906107a391906110cb565b036107ad57505050565b60005b60c8811015610cd7576000737109709ecfa91a80626ff3989d68f67f5b1dd12d6001600160a01b031663667f9d708686856040516020016107f29291906110e4565b604051602081830303815290604052805190602001206040518363ffffffff1660e01b81526004016108259291906110e4565b602060405180830381865afa158015610842573d6000803e3d6000fd5b505050506040513d601f19601f8201168201806040525081019061086691906110cb565b9050737109709ecfa91a80626ff3989d68f67f5b1dd12d6001600160a01b03166370ca10bb86868560405160200161089f9291906110e4565b60408051601f198184030181529082905280516020909101206001600160e01b031960e085901b1682526108d8929188906004016112b7565b600060405180830381600087803b1580156108f257600080fd5b505af1158015610906573d6000803e3d6000fd5b50506040516370a0823160e01b81526001600160a01b038781166004830152869350881691506370a0823190602401602060405180830381865afa158015610952573d6000803e3d6000fd5b505050506040513d601f19601f8201168201806040525081019061097691906110cb565b03610982575050505050565b737109709ecfa91a80626ff3989d68f67f5b1dd12d6001600160a01b03166370ca10bb8686856040516020016109b99291906110e4565b60405160208183030381529060405280519060200120846040518463ffffffff1660e01b81526004016109ee939291906112b7565b600060405180830381600087803b158015610a0857600080fd5b505af1158015610a1c573d6000803e3d6000fd5b50505050506000610a3e737109709ecfa91a80626ff3989d68f67f5b1dd12d90565b6001600160a01b031663667f9d70868487604051602001610a729291909182526001600160a01b0316602082015260400190565b604051602081830303815290604052805190602001206040518363ffffffff1660e01b8152600401610aa59291906110e4565b602060405180830381865afa158015610ac2573d6000803e3d6000fd5b505050506040513d601f19601f82011682018060405250810190610ae691906110cb565b9050737109709ecfa91a80626ff3989d68f67f5b1dd12d6001600160a01b03166370ca10bb868487604051602001610b319291909182526001600160a01b0316602082015260400190565b60408051601f198184030181529082905280516020909101206001600160e01b031960e085901b168252610b6a929188906004016112b7565b600060405180830381600087803b158015610b8457600080fd5b505af1158015610b98573d6000803e3d6000fd5b50506040516370a0823160e01b81526001600160a01b038781166004830152869350881691506370a0823190602401602060405180830381865afa158015610be4573d6000803e3d6000fd5b505050506040513d601f19601f82011682018060405250810190610c0891906110cb565b03610c14575050505050565b737109709ecfa91a80626ff3989d68f67f5b1dd12d6001600160a01b03166370ca10bb868487604051602001610c5d9291909182526001600160a01b0316602082015260400190565b60405160208183030381529060405280519060200120846040518463ffffffff1660e01b8152600401610c92939291906112b7565b600060405180830381600087803b158015610cac57600080fd5b505af1158015610cc0573d6000803e3d6000fd5b505050505080610ccf816112d8565b9150506107b0565b5060405162461bcd60e51b8152602060048201526015602482015274436f756c64206e6f74206769766520746f6b656e7360581b60448201526064015b60405180910390fd5b60405163bf353dbb60e01b81526001600160a01b03838116600483015282919085169063bf353dbb90602401602060405180830381865afa158015610d66573d6000803e3d6000fd5b505050506040513d601f19601f82011682018060405250810190610d8a91906110cb565b03610d9457505050565b60005b606481121561101a576000737109709ecfa91a80626ff3989d68f67f5b1dd12d6001600160a01b031663667f9d70868685604051602001610dd99291906110e4565b604051602081830303815290604052805190602001206040518363ffffffff1660e01b8152600401610e0c9291906110e4565b602060405180830381865afa158015610e29573d6000803e3d6000fd5b505050506040513d601f19601f82011682018060405250810190610e4d91906110cb565b9050737109709ecfa91a80626ff3989d68f67f5b1dd12d6001600160a01b03166370ca10bb868685604051602001610e869291906110e4565b60408051601f198184030181529082905280516020909101206001600160e01b031960e085901b168252610ebf929188906004016112b7565b600060405180830381600087803b158015610ed957600080fd5b505af1158015610eed573d6000803e3d6000fd5b505060405163bf353dbb60e01b81526001600160a01b0387811660048301528693508816915063bf353dbb90602401602060405180830381865afa158015610f39573d6000803e3d6000fd5b505050506040513d601f19601f82011682018060405250810190610f5d91906110cb565b03610f69575050505050565b737109709ecfa91a80626ff3989d68f67f5b1dd12d6001600160a01b03166370ca10bb868685604051602001610fa09291906110e4565b60405160208183030381529060405280519060200120846040518463ffffffff1660e01b8152600401610fd5939291906112b7565b600060405180830381600087803b158015610fef57600080fd5b505af1158015611003573d6000803e3d6000fd5b505050505080611012816112f1565b915050610d97565b5060405162461bcd60e51b815260206004820152601a60248201527f436f756c64206e6f7420676976652061757468206163636573730000000000006044820152606401610d14565b6001600160a01b038116811461107857600080fd5b50565b6000806040838503121561108e57600080fd5b823561109981611063565b946020939093013593505050565b6000602082840312156110b957600080fd5b81516110c481611063565b9392505050565b6000602082840312156110dd57600080fd5b5051919050565b6001600160a01b03929092168252602082015260400190565b60006020828403121561110f57600080fd5b815180151581146110c457600080fd5b600080600080600060a0868803121561113757600080fd5b5050835160208501516040860151606087015160809097015192989197509594509092509050565b634e487b7160e01b600052601160045260246000fd5b808202811582820484141761118c5761118c61115f565b92915050565b6000826111af57634e487b7160e01b600052601260045260246000fd5b500490565b8181038181111561118c5761118c61115f565b600181815b808511156112025781600019048211156111e8576111e861115f565b808516156111f557918102915b93841c93908002906111cc565b509250929050565b6000826112195750600161118c565b816112265750600061118c565b816001811461123c576002811461124657611262565b600191505061118c565b60ff8411156112575761125761115f565b50506001821b61118c565b5060208310610133831016604e8410600b8410161715611285575081810a61118c565b61128f83836111c7565b80600019048211156112a3576112a361115f565b029392505050565b60006110c4838361120a565b6001600160a01b039390931683526020830191909152604082015260600190565b6000600182016112ea576112ea61115f565b5060010190565b60006001600160ff1b0182016112ea576112ea61115f56fea26469706673582212208886bbd392af5138402ba34e107260ca0f59fb78ca73bc9e1ede107026ceda5964736f6c63430008140033",
    "linkReferences": {}
  },
  "methodIdentifiers": {
    "createAuction(address,uint256)": "f7e88298"
  },
  "id": 72
}