{
  "abi": [
    {
      "inputs": [],
      "stateMutability": "nonpayable",
      "type": "constructor"
    },
    {
      "anonymous": false,
      "inputs": [
        {
          "indexed": true,
          "internalType": "address",
          "name": "usr",
          "type": "address"
        }
      ],
      "name": "Deny",
      "type": "event"
    },
    {
      "anonymous": false,
      "inputs": [
        {
          "indexed": true,
          "internalType": "address",
          "name": "usr",
          "type": "address"
        }
      ],
      "name": "Rely",
      "type": "event"
    },
    {
      "anonymous": false,
      "inputs": [
        {
          "indexed": true,
          "internalType": "bytes32",
          "name": "ilk",
          "type": "bytes32"
        },
        {
          "indexed": false,
          "internalType": "address",
          "name": "user",
          "type": "address"
        }
      ],
      "name": "SetIlkAdmin",
      "type": "event"
    },
    {
      "anonymous": false,
      "inputs": [
        {
          "indexed": true,
          "internalType": "bytes32",
          "name": "ilk",
          "type": "bytes32"
        },
        {
          "indexed": true,
          "internalType": "uint8",
          "name": "role",
          "type": "uint8"
        },
        {
          "indexed": true,
          "internalType": "address",
          "name": "target",
          "type": "address"
        },
        {
          "indexed": false,
          "internalType": "bytes4",
          "name": "sig",
          "type": "bytes4"
        },
        {
          "indexed": false,
          "internalType": "bool",
          "name": "enabled",
          "type": "bool"
        }
      ],
      "name": "SetRoleAction",
      "type": "event"
    },
    {
      "anonymous": false,
      "inputs": [
        {
          "indexed": true,
          "internalType": "bytes32",
          "name": "ilk",
          "type": "bytes32"
        },
        {
          "indexed": true,
          "internalType": "address",
          "name": "who",
          "type": "address"
        },
        {
          "indexed": true,
          "internalType": "uint8",
          "name": "role",
          "type": "uint8"
        },
        {
          "indexed": false,
          "internalType": "bool",
          "name": "enabled",
          "type": "bool"
        }
      ],
      "name": "SetUserRole",
      "type": "event"
    },
    {
      "inputs": [
        {
          "internalType": "bytes32",
          "name": "",
          "type": "bytes32"
        },
        {
          "internalType": "address",
          "name": "",
          "type": "address"
        },
        {
          "internalType": "bytes4",
          "name": "",
          "type": "bytes4"
        }
      ],
      "name": "actionsRoles",
      "outputs": [
        {
          "internalType": "bytes32",
          "name": "",
          "type": "bytes32"
        }
      ],
      "stateMutability": "view",
      "type": "function"
    },
    {
      "inputs": [
        {
          "internalType": "bytes32",
          "name": "ilk",
          "type": "bytes32"
        },
        {
          "internalType": "address",
          "name": "caller",
          "type": "address"
        },
        {
          "internalType": "address",
          "name": "target",
          "type": "address"
        },
        {
          "internalType": "bytes4",
          "name": "sig",
          "type": "bytes4"
        }
      ],
      "name": "canCall",
      "outputs": [
        {
          "internalType": "bool",
          "name": "ok",
          "type": "bool"
        }
      ],
      "stateMutability": "view",
      "type": "function"
    },
    {
      "inputs": [
        {
          "internalType": "address",
          "name": "usr",
          "type": "address"
        }
      ],
      "name": "deny",
      "outputs": [],
      "stateMutability": "nonpayable",
      "type": "function"
    },
    {
      "inputs": [
        {
          "internalType": "bytes32",
          "name": "ilk",
          "type": "bytes32"
        },
        {
          "internalType": "address",
          "name": "who",
          "type": "address"
        },
        {
          "internalType": "uint8",
          "name": "role",
          "type": "uint8"
        }
      ],
      "name": "hasUserRole",
      "outputs": [
        {
          "internalType": "bool",
          "name": "",
          "type": "bool"
        }
      ],
      "stateMutability": "view",
      "type": "function"
    },
    {
      "inputs": [
        {
          "internalType": "bytes32",
          "name": "",
          "type": "bytes32"
        }
      ],
      "name": "ilkAdmins",
      "outputs": [
        {
          "internalType": "address",
          "name": "",
          "type": "address"
        }
      ],
      "stateMutability": "view",
      "type": "function"
    },
    {
      "inputs": [
        {
          "internalType": "address",
          "name": "usr",
          "type": "address"
        }
      ],
      "name": "rely",
      "outputs": [],
      "stateMutability": "nonpayable",
      "type": "function"
    },
    {
      "inputs": [
        {
          "internalType": "bytes32",
          "name": "ilk",
          "type": "bytes32"
        },
        {
          "internalType": "address",
          "name": "user",
          "type": "address"
        }
      ],
      "name": "setIlkAdmin",
      "outputs": [],
      "stateMutability": "nonpayable",
      "type": "function"
    },
    {
      "inputs": [
        {
          "internalType": "bytes32",
          "name": "ilk",
          "type": "bytes32"
        },
        {
          "internalType": "uint8",
          "name": "role",
          "type": "uint8"
        },
        {
          "internalType": "address",
          "name": "target",
          "type": "address"
        },
        {
          "internalType": "bytes4",
          "name": "sig",
          "type": "bytes4"
        },
        {
          "internalType": "bool",
          "name": "enabled",
          "type": "bool"
        }
      ],
      "name": "setRoleAction",
      "outputs": [],
      "stateMutability": "nonpayable",
      "type": "function"
    },
    {
      "inputs": [
        {
          "internalType": "bytes32",
          "name": "ilk",
          "type": "bytes32"
        },
        {
          "internalType": "address",
          "name": "who",
          "type": "address"
        },
        {
          "internalType": "uint8",
          "name": "role",
          "type": "uint8"
        },
        {
          "internalType": "bool",
          "name": "enabled",
          "type": "bool"
        }
      ],
      "name": "setUserRole",
      "outputs": [],
      "stateMutability": "nonpayable",
      "type": "function"
    },
    {
      "inputs": [
        {
          "internalType": "bytes32",
          "name": "",
          "type": "bytes32"
        },
        {
          "internalType": "address",
          "name": "",
          "type": "address"
        }
      ],
      "name": "userRoles",
      "outputs": [
        {
          "internalType": "bytes32",
          "name": "",
          "type": "bytes32"
        }
      ],
      "stateMutability": "view",
      "type": "function"
    },
    {
      "inputs": [
        {
          "internalType": "address",
          "name": "",
          "type": "address"
        }
      ],
      "name": "wards",
      "outputs": [
        {
          "internalType": "uint256",
          "name": "",
          "type": "uint256"
        }
      ],
      "stateMutability": "view",
      "type": "function"
    }
  ],
  "bytecode": {
    "object": "0x608060405234801561001057600080fd5b503360008181526020819052604080822060019055517fdd0e34038ac38b2a1ce960229778ac48a8719bc900b6c4f8d0475c6e8b385a609190a2610a1e806100596000396000f3fe608060405234801561001057600080fd5b50600436106100a95760003560e01c8063a04deb7411610071578063a04deb7414610174578063bf353dbb146101b5578063c6768fb7146101e3578063cb0c4adc14610214578063daa701031461023f578063fd58fc341461025257600080fd5b80631c76b182146100ae57806365fae35e146100c357806366d3e365146100d6578063784c0a91146100e95780639c52a7f114610161575b600080fd5b6100c16100bc3660046106a5565b610265565b005b6100c16100d1366004610703565b61039b565b6100c16100e4366004610725565b61040f565b61014c6100f7366004610772565b60008481526003602090815260408083206001600160a01b03958616845282528083206001600160e01b0319909416835292815282822054958252600281528282209490931681529290915290205416151590565b60405190151581526020015b60405180910390f35b6100c161016f366004610703565b61050b565b61019d6101823660046107b4565b6001602052600090815260409020546001600160a01b031681565b6040516001600160a01b039091168152602001610158565b6101d56101c3366004610703565b60006020819052908152604090205481565b604051908152602001610158565b6101d56101f13660046107cd565b600360209081526000938452604080852082529284528284209052825290205481565b6101d5610222366004610809565b600260209081526000928352604080842090915290825290205481565b6100c161024d366004610809565b61057e565b61014c610260366004610835565b610611565b60008581526001602052604090205485906001600160a01b031633146102a65760405162461bcd60e51b815260040161029d90610868565b60405180910390fd5b60006102b660ff871660026109a5565b905082156102fd5760008781526003602090815260408083206001600160a01b038916845282528083206001600160e01b031988168452909152902080548217905561033c565b60008781526003602090815260408083206001600160a01b038916845282528083206001600160e01b0319881684529091529020805460001983181690555b604080516001600160e01b03198616815284151560208201526001600160a01b0387169160ff8916918a917fe459bcd103dbe8b0e6a5d530849ce830cfccf2828693cd58ae90801afd24fab5910160405180910390a450505050505050565b336000908152602081905260409020546001146103ca5760405162461bcd60e51b815260040161029d906109b1565b6001600160a01b03811660008181526020819052604080822060019055517fdd0e34038ac38b2a1ce960229778ac48a8719bc900b6c4f8d0475c6e8b385a609190a250565b60008481526001602052604090205484906001600160a01b031633146104475760405162461bcd60e51b815260040161029d90610868565b600061045760ff851660026109a5565b9050821561048c5760008681526002602090815260408083206001600160a01b038916845290915290208054821790556104b9565b60008681526002602090815260408083206001600160a01b03891684529091529020805460001983181690555b8360ff16856001600160a01b0316877f830afcb2e8fda1fe33202a89fe3abf4fc4205f546f29092f144c19e34aab3cea866040516104fb911515815260200190565b60405180910390a4505050505050565b3360009081526020819052604090205460011461053a5760405162461bcd60e51b815260040161029d906109b1565b6001600160a01b038116600081815260208190526040808220829055517f184450df2e323acec0ed3b5c7531b81f9b4cdef7914dfd4c0a4317416bb5251b9190a250565b336000908152602081905260409020546001146105ad5760405162461bcd60e51b815260040161029d906109b1565b60008281526001602090815260409182902080546001600160a01b0319166001600160a01b038516908117909155915191825283917f1666ce5bfc515e272162696dc7b908334194bcf1f921f457b5406d2e00ed9e6e910160405180910390a25050565b600061062160ff831660026109a5565b60008581526002602090815260408083206001600160a01b038816845290915290205416151590509392505050565b803560ff8116811461066157600080fd5b919050565b80356001600160a01b038116811461066157600080fd5b80356001600160e01b03198116811461066157600080fd5b8035801515811461066157600080fd5b600080600080600060a086880312156106bd57600080fd5b853594506106cd60208701610650565b93506106db60408701610666565b92506106e96060870161067d565b91506106f760808701610695565b90509295509295909350565b60006020828403121561071557600080fd5b61071e82610666565b9392505050565b6000806000806080858703121561073b57600080fd5b8435935061074b60208601610666565b925061075960408601610650565b915061076760608601610695565b905092959194509250565b6000806000806080858703121561078857600080fd5b8435935061079860208601610666565b92506107a660408601610666565b91506107676060860161067d565b6000602082840312156107c657600080fd5b5035919050565b6000806000606084860312156107e257600080fd5b833592506107f260208501610666565b91506108006040850161067d565b90509250925092565b6000806040838503121561081c57600080fd5b8235915061082c60208401610666565b90509250929050565b60008060006060848603121561084a57600080fd5b8335925061085a60208501610666565b915061080060408501610650565b60208082526021908201527f416c6c6f6361746f72526f6c65732f696c6b2d6e6f742d617574686f72697a656040820152601960fa1b606082015260800190565b634e487b7160e01b600052601160045260246000fd5b600181815b808511156108fa5781600019048211156108e0576108e06108a9565b808516156108ed57918102915b93841c93908002906108c4565b509250929050565b6000826109115750600161099f565b8161091e5750600061099f565b8160018114610934576002811461093e5761095a565b600191505061099f565b60ff84111561094f5761094f6108a9565b50506001821b61099f565b5060208310610133831016604e8410600b841016171561097d575081810a61099f565b61098783836108bf565b806000190482111561099b5761099b6108a9565b0290505b92915050565b600061071e8383610902565b6020808252601d908201527f416c6c6f6361746f72526f6c65732f6e6f742d617574686f72697a656400000060408201526060019056fea26469706673582212200a2cb90ff2b89b60de536043294dacc625f91ee84119cc783c2531f3b3dfee4364736f6c63430008140033",
    "linkReferences": {}
  },
  "methodIdentifiers": {
    "actionsRoles(bytes32,address,bytes4)": "c6768fb7",
    "canCall(bytes32,address,address,bytes4)": "784c0a91",
    "deny(address)": "9c52a7f1",
    "hasUserRole(bytes32,address,uint8)": "fd58fc34",
    "ilkAdmins(bytes32)": "a04deb74",
    "rely(address)": "65fae35e",
    "setIlkAdmin(bytes32,address)": "daa70103",
    "setRoleAction(bytes32,uint8,address,bytes4,bool)": "1c76b182",
    "setUserRole(bytes32,address,uint8,bool)": "66d3e365",
    "userRoles(bytes32,address)": "cb0c4adc",
    "wards(address)": "bf353dbb"
  },
  "id": 1
}