{
  "abi": [
    {
      "inputs": [],
      "stateMutability": "nonpayable",
      "type": "constructor"
    },
    {
      "anonymous": false,
      "inputs": [
        {
          "indexed": true,
          "internalType": "address",
          "name": "usr",
          "type": "address"
        }
      ],
      "name": "Deny",
      "type": "event"
    },
    {
      "anonymous": false,
      "inputs": [
        {
          "indexed": true,
          "internalType": "bytes32",
          "name": "ilk",
          "type": "bytes32"
        },
        {
          "indexed": true,
          "internalType": "bytes32",
          "name": "what",
          "type": "bytes32"
        },
        {
          "indexed": false,
          "internalType": "address",
          "name": "data",
          "type": "address"
        }
      ],
      "name": "File",
      "type": "event"
    },
    {
      "anonymous": false,
      "inputs": [
        {
          "indexed": true,
          "internalType": "address",
          "name": "usr",
          "type": "address"
        }
      ],
      "name": "Rely",
      "type": "event"
    },
    {
      "inputs": [
        {
          "internalType": "bytes32",
          "name": "",
          "type": "bytes32"
        }
      ],
      "name": "buffers",
      "outputs": [
        {
          "internalType": "address",
          "name": "",
          "type": "address"
        }
      ],
      "stateMutability": "view",
      "type": "function"
    },
    {
      "inputs": [
        {
          "internalType": "address",
          "name": "usr",
          "type": "address"
        }
      ],
      "name": "deny",
      "outputs": [],
      "stateMutability": "nonpayable",
      "type": "function"
    },
    {
      "inputs": [
        {
          "internalType": "bytes32",
          "name": "ilk",
          "type": "bytes32"
        },
        {
          "internalType": "bytes32",
          "name": "what",
          "type": "bytes32"
        },
        {
          "internalType": "address",
          "name": "data",
          "type": "address"
        }
      ],
      "name": "file",
      "outputs": [],
      "stateMutability": "nonpayable",
      "type": "function"
    },
    {
      "inputs": [
        {
          "internalType": "address",
          "name": "usr",
          "type": "address"
        }
      ],
      "name": "rely",
      "outputs": [],
      "stateMutability": "nonpayable",
      "type": "function"
    },
    {
      "inputs": [
        {
          "internalType": "address",
          "name": "",
          "type": "address"
        }
      ],
      "name": "wards",
      "outputs": [
        {
          "internalType": "uint256",
          "name": "",
          "type": "uint256"
        }
      ],
      "stateMutability": "view",
      "type": "function"
    }
  ],
  "bytecode": {
    "object": "0x608060405234801561001057600080fd5b503360008181526020819052604080822060019055517fdd0e34038ac38b2a1ce960229778ac48a8719bc900b6c4f8d0475c6e8b385a609190a26103fc806100596000396000f3fe608060405234801561001057600080fd5b50600436106100575760003560e01c806365fae35e1461005c5780636610bf7f146100715780639c52a7f1146100b7578063bf353dbb146100ca578063ebecb39d146100f8575b600080fd5b61006f61006a366004610321565b61010b565b005b61009a61007f366004610343565b6001602052600090815260409020546001600160a01b031681565b6040516001600160a01b0390911681526020015b60405180910390f35b61006f6100c5366004610321565b610188565b6100ea6100d8366004610321565b60006020819052908152604090205481565b6040519081526020016100ae565b61006f61010636600461035c565b6101fb565b336000908152602081905260409020546001146101435760405162461bcd60e51b815260040161013a90610391565b60405180910390fd5b6001600160a01b03811660008181526020819052604080822060019055517fdd0e34038ac38b2a1ce960229778ac48a8719bc900b6c4f8d0475c6e8b385a609190a250565b336000908152602081905260409020546001146101b75760405162461bcd60e51b815260040161013a90610391565b6001600160a01b038116600081815260208190526040808220829055517f184450df2e323acec0ed3b5c7531b81f9b4cdef7914dfd4c0a4317416bb5251b9190a250565b3360009081526020819052604090205460011461022a5760405162461bcd60e51b815260040161013a90610391565b8165313ab33332b960d11b0361026657600083815260016020526040902080546001600160a01b0319166001600160a01b0383161790556102c0565b60405162461bcd60e51b815260206004820152602960248201527f416c6c6f6361746f7252656769737472792f66696c652d756e7265636f676e696044820152687a65642d706172616d60b81b606482015260840161013a565b6040516001600160a01b0382168152829084907f4ff2caaa972a7c6629ea01fae9c93d73cc307d13ea4c369f9bbbb7f9b7e9461d9060200160405180910390a3505050565b80356001600160a01b038116811461031c57600080fd5b919050565b60006020828403121561033357600080fd5b61033c82610305565b9392505050565b60006020828403121561035557600080fd5b5035919050565b60008060006060848603121561037157600080fd5b833592506020840135915061038860408501610305565b90509250925092565b6020808252818101527f416c6c6f6361746f7252656769737472792f6e6f742d617574686f72697a656460408201526060019056fea264697066735822122002b4c53d9fa3a81b0a0894c6e39681fefe7c19912e670fbadd1caf57a6e0870564736f6c63430008140033",
    "linkReferences": {}
  },
  "methodIdentifiers": {
    "buffers(bytes32)": "6610bf7f",
    "deny(address)": "9c52a7f1",
    "file(bytes32,bytes32,address)": "ebecb39d",
    "rely(address)": "65fae35e",
    "wards(address)": "bf353dbb"
  },
  "id": 0
}